:020000040800F2
:1000000000280020E90200087B02000881020008A5
:10001000870200088D02000893020008000000001B
:10002000000000000000000000000000990200082D
:10003000A502000800000000B1020008BD0200088F
:1000400031030008310300083103000831030008C0
:1000500031030008310300083103000831030008B0
:1000600031030008310300083103000831030008A0
:100070003103000831030008310300083103000890
:100080003103000831030008310300083103000880
:100090003103000831030008310300083103000870
:1000A0003103000831030008310300083103000860
:1000B000C9020008310300080000000031030008F5
:1000C00031030008000000000000000031030008B8
:1000D00000000000310300083103000800000000A8
:1000E000310300083103000831030008000000005C
:1000F0000000000000000000000000000000000000
:0C01000000000000000000005FF808F1A3
:10010C0010B5054C237833B9044B13B10448AFF345
:10011C0000800123237010BD0400002000000000AB
:10012C00BC06000808B5034B1BB103490348AFF3E9
:10013C00008008BD0000000008000020BC0600087C
:10014C0080B584B000AF0023FB813B1D4FF4FA71E6
:10015C00184600F063F8FB89002B02D0012B1BD052
:10016C0034E0002220212C4800F01EF9012240210D
:10017C00294800F019F901228021274800F014F9D0
:10018C003B79002B3DD10123FB813B1D4FF4967134
:10019C00184600F043F834E0012220211E4800F0FC
:1001AC0003F9012240211C4800F0FEF800228021B6
:1001BC00194800F0F9F83B79002B24D10223FB817C
:1001CC003B1DC821184600F029F81CE00122202113
:1001DC00114800F0E9F8002240210F4800F0E4F843
:1001EC00012280210C4800F0DFF83B79002B0BD169
:1001FC000023FB813B1D4FF4FA71184600F00EF8FA
:10020C0002E000BF00E000BF3B1D184600F016F8EE
:10021C000A2000F0A5F89EE70008014080B483B0E6
:10022C0000AF786039607B683A685A607B6801225D
:10023C001A7000BF0C37BD4680BC704780B483B0C9
:10024C0000AF78607B685B68002B0BD07B685B68C9
:10025C005A1E7B685A607B685B68002B02D17B68F6
:10026C0000221A7000BF0C37BD4680BC704780B4AA
:10027C0000AFFEE780B400AFFEE780B400AFFEE74E
:10028C0080B400AFFEE780B400AFFEE780B400AFEF
:10029C0000BFBD4680BC704780B400AF00BFBD46F8
:1002AC0080BC704780B400AF00BFBD4680BC7047B7
:1002BC0080B500AF00F038F800BF80BD80B500AF4E
:1002CC00024800F089F800BF80BD00BF200000206C
:1002DC0080B400AF00BFBD4680BC7047FFF7F8FF8D
:1002EC000B480C490C4A002302E0D458C450043388
:1002FC00C4188C42F9D3094A094C002301E013605D
:10030C000432A242FBD300F0AFF9FFF719FF70479C
:10031C000000002004000020DC060008040000207F
:10032C006C000020FEE7000080B400AF054B1B788A
:10033C001A46054B1B681344034A136000BFBD46A5
:10034C0080BC7047000000206800002080B400AF23
:10035C00024B1B681846BD4680BC704768000020E5
:10036C0080B584B000AF7860FFF7F0FFB8607B68B1
:10037C00FB60FB68B3F1FF3F05D00A4B1B781A46B4
:10038C00FB681344FB6000BFFFF7E0FF0246BB684D
:10039C00D31AFA689A42F7D800BF00BF1037BD468F
:1003AC0080BD00BF0000002080B483B000AF786037
:1003BC000B467B8013467B707B78002B03D07A88AE
:1003CC007B681A6103E07B881A047B681A6100BFA2
:1003DC000C37BD4680BC704780B582B000AF7860EA
:1003EC007B681B681B6903F00203022B22D17B681C
:1003FC001B68DB6803F00203022B1BD17B681B68B4
:10040C006FF002021A617B6801221A777B681B6805
:10041C009B6903F00303002B03D0786800F0F6F817
:10042C0005E0786800F0E9F8786800F0F8F87B6887
:10043C0000221A777B681B681B6903F00403042BEA
:10044C0022D17B681B68DB6803F00403042B1BD1EF
:10045C007B681B686FF004021A617B6802221A77B2
:10046C007B681B689B6903F44073002B03D078688E
:10047C0000F0CCF805E0786800F0BFF8786800F080
:10048C00CEF87B6800221A777B681B681B6903F027
:10049C000803082B22D17B681B68DB6803F0080378
:1004AC00082B1BD17B681B686FF008021A617B68F4
:1004BC0004221A777B681B68DB6903F00303002BAB
:1004CC0003D0786800F0A2F805E0786800F095F8A1
:1004DC00786800F0A4F87B6800221A777B681B68A8
:1004EC001B6903F01003102B22D17B681B68DB689F
:1004FC0003F01003102B1BD17B681B686FF01002EC
:10050C001A617B6808221A777B681B68DB6903F425
:10051C004073002B03D0786800F078F805E0786819
:10052C0000F06BF8786800F07AF87B6800221A7794
:10053C007B681B681B6903F00103012B0ED17B68E0
:10054C001B68DB6803F00103012B07D17B681B6878
:10055C006FF001021A61786800F046F87B681B683E
:10056C001B6903F08003802B0ED17B681B68DB6852
:10057C0003F08003802B07D17B681B686FF080022F
:10058C001A61786800F066F87B681B681B6903F0D9
:10059C004003402B0ED17B681B68DB6803F04003E3
:1005AC00402B07D17B681B686FF040021A6178689A
:1005BC0000F03EF87B681B681B6903F02003202BBE
:1005CC000ED17B681B68DB6803F02003202B07D15E
:1005DC007B681B686FF020021A61786800F031F8B4
:1005EC0000BF0837BD4680BD80B483B000AF7860D3
:1005FC0000BF0C37BD4680BC704780B483B000AFE1
:10060C00786000BF0C37BD4680BC704780B483B0A7
:10061C0000AF786000BF0C37BD4680BC704780B41B
:10062C0083B000AF786000BF0C37BD4680BC70470C
:10063C0080B483B000AF786000BF0C37BD4680BC7F
:10064C00704780B483B000AF786000BF0C37BD46F4
:10065C0080BC704780B483B000AF786000BF0C37AB
:10066C00BD4680BC7047000070B500260C4D0D4C8B
:10067C00641BA410A64209D100F01AF800260A4DFA
:10068C000A4C641BA410A64205D170BD55F8043B5E
:10069C0098470136EEE755F8043B98470136F2E7E8
:1006AC00D4060008D4060008D4060008D8060008B2
:1006BC00F8B500BFF8BC08BC9E467047F8B500BF43
:0806CC00F8BC08BC9E46704713
:0406D40031010008E8
:0406D8000D01000808
:0406DC000100000019
:04000005080002E904
:00000001FF
